{
  "_format": "hh-sol-artifact-1",
  "contractName": "Bank",
  "sourceName": "contracts/Bank.sol",
  "abi": [
    {
      "inputs": [],
      "stateMutability": "payable",
      "type": "constructor"
    },
    {
      "inputs": [
        {
          "internalType": "address",
          "name": "token",
          "type": "address"
        }
      ],
      "name": "balanceOf",
      "outputs": [
        {
          "internalType": "uint256",
          "name": "",
          "type": "uint256"
        }
      ],
      "stateMutability": "view",
      "type": "function"
    },
    {
      "inputs": [
        {
          "internalType": "address",
          "name": "token",
          "type": "address"
        },
        {
          "internalType": "uint256",
          "name": "amount",
          "type": "uint256"
        }
      ],
      "name": "deposit",
      "outputs": [],
      "stateMutability": "payable",
      "type": "function"
    },
    {
      "inputs": [],
      "name": "owner",
      "outputs": [
        {
          "internalType": "address payable",
          "name": "",
          "type": "address"
        }
      ],
      "stateMutability": "view",
      "type": "function"
    },
    {
      "inputs": [
        {
          "internalType": "address",
          "name": "token",
          "type": "address"
        },
        {
          "internalType": "uint256",
          "name": "amount",
          "type": "uint256"
        }
      ],
      "name": "withdraw",
      "outputs": [],
      "stateMutability": "nonpayable",
      "type": "function"
    }
  ],
  "bytecode": "0x608060405233600160006101000a81548173ffffffffffffffffffffffffffffffffffffffff021916908373ffffffffffffffffffffffffffffffffffffffff160217905550610919806100546000396000f3fe60806040526004361061003f5760003560e01c806347e7ef241461004457806370a08231146100605780638da5cb5b1461009d578063f3fef3a3146100c8575b600080fd5b61005e60048036038101906100599190610592565b6100f1565b005b34801561006c57600080fd5b5061008760048036038101906100829190610569565b61025a565b604051610094919061075f565b60405180910390f35b3480156100a957600080fd5b506100b26102df565b6040516100bf91906106a4565b60405180910390f35b3480156100d457600080fd5b506100ef60048036038101906100ea9190610592565b610305565b005b60008111610134576040517f08c379a000000000000000000000000000000000000000000000000000000000815260040161012b9061071f565b60405180910390fd5b8173ffffffffffffffffffffffffffffffffffffffff166323b872dd3330846040518463ffffffff1660e01b8152600401610171939291906106bf565b602060405180830381600087803b15801561018b57600080fd5b505af115801561019f573d6000803e3d6000fd5b505050506040513d601f19601f820116820180604052508101906101c391906105ce565b50806000803373ffffffffffffffffffffffffffffffffffffffff1673ffffffffffffffffffffffffffffffffffffffff16815260200190815260200160002060008473ffffffffffffffffffffffffffffffffffffffff1673ffffffffffffffffffffffffffffffffffffffff168152602001908152602001600020600082825461024f919061078b565b925050819055505050565b60008060003373ffffffffffffffffffffffffffffffffffffffff1673ffffffffffffffffffffffffffffffffffffffff16815260200190815260200160002060008373ffffffffffffffffffffffffffffffffffffffff1673ffffffffffffffffffffffffffffffffffffffff168152602001908152602001600020549050919050565b600160009054906101000a900473ffffffffffffffffffffffffffffffffffffffff1681565b60008111610348576040517f08c379a000000000000000000000000000000000000000000000000000000000815260040161033f9061071f565b60405180910390fd5b806000803373ffffffffffffffffffffffffffffffffffffffff1673ffffffffffffffffffffffffffffffffffffffff16815260200190815260200160002060008473ffffffffffffffffffffffffffffffffffffffff1673ffffffffffffffffffffffffffffffffffffffff168152602001908152602001600020541015610406576040517f08c379a00000000000000000000000000000000000000000000000000000000081526004016103fd9061073f565b60405180910390fd5b8173ffffffffffffffffffffffffffffffffffffffff1663a9059cbb33836040518363ffffffff1660e01b81526004016104419291906106f6565b602060405180830381600087803b15801561045b57600080fd5b505af115801561046f573d6000803e3d6000fd5b505050506040513d601f19601f8201168201806040525081019061049391906105ce565b50806000803373ffffffffffffffffffffffffffffffffffffffff1673ffffffffffffffffffffffffffffffffffffffff16815260200190815260200160002060008473ffffffffffffffffffffffffffffffffffffffff1673ffffffffffffffffffffffffffffffffffffffff168152602001908152602001600020600082825461051f91906107e1565b925050819055505050565b6000813590506105398161089e565b92915050565b60008151905061054e816108b5565b92915050565b600081359050610563816108cc565b92915050565b60006020828403121561057b57600080fd5b60006105898482850161052a565b91505092915050565b600080604083850312156105a557600080fd5b60006105b38582860161052a565b92505060206105c485828601610554565b9150509250929050565b6000602082840312156105e057600080fd5b60006105ee8482850161053f565b91505092915050565b61060081610827565b82525050565b61060f81610815565b82525050565b6000610622601d8361077a565b91507f416d6f756e74206d7573742062652067726561746572207468616e20300000006000830152602082019050919050565b600061066260148361077a565b91507f496e73756666696369656e742062616c616e63650000000000000000000000006000830152602082019050919050565b61069e81610865565b82525050565b60006020820190506106b960008301846105f7565b92915050565b60006060820190506106d46000830186610606565b6106e16020830185610606565b6106ee6040830184610695565b949350505050565b600060408201905061070b6000830185610606565b6107186020830184610695565b9392505050565b6000602082019050818103600083015261073881610615565b9050919050565b6000602082019050818103600083015261075881610655565b9050919050565b60006020820190506107746000830184610695565b92915050565b600082825260208201905092915050565b600061079682610865565b91506107a183610865565b9250827fffffffffffffffffffffffffffffffffffffffffffffffffffffffffffffffff038211156107d6576107d561086f565b5b828201905092915050565b60006107ec82610865565b91506107f783610865565b92508282101561080a5761080961086f565b5b828203905092915050565b600061082082610845565b9050919050565b600061083282610845565b9050919050565b60008115159050919050565b600073ffffffffffffffffffffffffffffffffffffffff82169050919050565b6000819050919050565b7f4e487b7100000000000000000000000000000000000000000000000000000000600052601160045260246000fd5b6108a781610815565b81146108b257600080fd5b50565b6108be81610839565b81146108c957600080fd5b50565b6108d581610865565b81146108e057600080fd5b5056fea26469706673582212208a384e2769b5fa3bc6bb2206c112752379d16b25f6153850d2f7c21417d7269e64736f6c63430008000033",
  "linkReferences": {},
  "deployedLinkReferences": {}
}